:100000000C94A5060C94CD060C94CD060C94CD064C
:100010000C94CD060C94CD060C94CD060C94CD0614
:100020000C94CD060C94CD060C9433090C94A509C0
:100030000C94CD060C94CD060C94CD060C94CD06F4
:100040000C94CD060C94CD060C94CD060C94CD06E4
:100050000C94CD060C94CD060C94CD060C948B0D0F
:100060000C94CD060C94CD060C94CD060C94CD06C4
:100070000C94CD060C94CD060C94CD060C94CD06B4
:100080000C94D50D0C94CD060C94CD060C94CD0695
:100090000C94CD060C94CD060C94CD060C94CD0694
:1000A0000C94CD060C94CD060C94CD06F0F89C8EE5
:1000B0008783878E9CF8F00000FEFF030303030391
:1000C000070EFCF80000FEFF0303030303070EFC0A
:1000D000F80000FFFF00000000000000FFFF00002C
:1000E000FEFF8383838383C7EE7C380000F8FC0E19
:1000F00007030303070EFCF800003F7FE0C0808089
:10010000C0E07F3FFFFF01010101010101FFFF008E
:1001100000FFFF0C0C0C0C1C3E77E3C100007FFFBE
:10012000C0C0C0C0C0E0703F1F00001F3F70E0C0F3
:10013000C0C0E0703F1F00007FFFC1C1C1C1C1E36B
:10014000773E1C00001F3F70E0C0C0C0E0703F1F42
:10015000000000000001FFFF01000000D5F08D1439
:10016000A1C881CFD9F1AF20000000580226012C90
:1001700001000014004A0196000000140006012C42
:1001800001000014002601BC020000DC055D012C0A
:1001900001000014004A0196000000140006012C22
:1001A0000100001400260120030080000000000070
:1001B000000000000000000000000000000000003F
:1001C000000000000000000000000000000000002F
:1001D00000000000F0F8F8E000C0FCFCFEFEFC00AF
:1001E0000080E0F0F0F00000000000000000FFFFE1
:1001F000FFFEF8C0FFFFFFFFC0FFFFFFFF3F80F0E3
:10020000FEFFFFFF0301000000000000000003FFED
:10021000FFFFFFFFFFFFFFFFFFFFFFFFFFFFFFFFEE
:10022000FF3F0FF1F8FCFCFCF800000000000001AB
:100230003FFFFFFFFFFFFFFFFFFFFFFFFFFFFFFF8E
:10024000FFFCFEFFFF7F3F0F0300000000000000E7
:1002500000FFFFFFFFFFFFFFFFFFFFFFFFFFFFFFAD
:10026000FFFF1F0F01000000000000203000000011
:10027000000000000000000000000000000000007E
:10028000000000000000000000000000000000006E
:10029000000000000000F09898E000C03C043AA67E
:1002A000FC00008060F010F0000000000000000082
:1002B000FF0D894E78C07F0008FFC07F0008E83F2F
:1002C00080701EC180FC03010000000000000000DF
:1002D00003FC00000003300000010D000000E703F4
:1002E0000100E0380FF1081C7CC4F8000000000099
:1002F00000013FE0000000000000000000000000DE
:100300000000030406038066380E030000000000AE
:10031000000000FF000000000000000000000000DE
:10032000000000E0100F010000000000008040000D
:1003300000000000000000000000000000000000BD
:1003400000000000000000000000000000000000AD
:10035000000000000000000000000000008000001D
:100360000000000080C000008000008080000000CD
:1003700080808000000000808080800000808000FD
:10038000000000000000000000000000000000006D
:10039000000000000000000000000000000000005D
:1003A000000000000000000000000000000000004D
:1003B000000000000000000000000000000000003D
:1003C000000000000000000000000000000000002D
:1003D000000000000000000064FA03820AC3B18735
:1003E000FC92A2FFC19CE587FB829BF181E3B28E68
:1003F000E3F8EF919D27318C42784739F510C738E3
:10040000C00000000000000000000000000000002C
:1004100000000000000000000000000000000000DC
:1004200000000000000000000000000000000000CC
:10043000000040C0C0C0C04000000000000000003C
:1004400000000000000000000000000000000000AC
:1004500000000000000000000000FF180F01002055
:10046000202020404040C081800000000100008129
:10047000C040404040612121212121130304FF8419
:1004800083808000000000000000000000000000E9
:10049000000000000000000000000000000000005C
:1004A000000000000000000000000000000000004C
:1004B000000080FFFFFFFF80808080808080000040
:1004C000000000000000000000000000000000002C
:1004D000000000000000FF014167FF000010282815
:1004E00044447C7C544444282801F3000080E10902
:1004F000142222223E3E2622221408000000FF0C75
:100500003800E13E00000000000000000000000094
:10051000000000000000000000000000000000805B
:1005200080808081FFFFFFFF81000000000000301D
:100530001C0301FFFFFFFF0000000000000001019D
:100540000101010101010101010101010101020299
:100550000202020202020F080804FF00000000006D
:10056000000000000000000000C07F00007F80004D
:100570000000000000000000000000000000FF0478
:100580000406070404040404020202020202020236
:100590000202020101010101010101010101010049
:1005A00080808080FFFFFFFF830C0830204080E0C8
:1005B000201C02FFFFFFFF020202020204040404E7
:1005C00004040404040404040404040404040404EB
:1005D00008080808080808080808FF0000000000CC
:1005E00000000000000804020100000000000101FA
:1005F00002060C000080C0E0C00000000000FF0800
:1006000008080808040404040404040404020202A0
:1006100002020202020202010101010101010101C3
:1006200000000000FFFFFFFF030C30C000000000CF
:1006300000F804FFFFFFFF04040404040408080892
:1006400008080808080808080810101010101010F2
:100650001010101010102020202027383020C080CB
:10066000808080808C0C0C0C0C0C0C0C0E0E0E0E72
:100670000E868783838181808080403848484F4040
:10068000402020202020202020202010101010109A
:1006900010101010100808080808080808080804B6
:1006A00004040404FFFFFFFFFC00000F10204002C1
:1006B000010000FFFFFFFF0000000000000000003D
:1006C000000000000000000080C06020101008083A
:1006D000080404040408080810102020E030180F53
:1006E00000000000010101010101010101010101FE
:1006F000010100000000000000070878C040402011
:100700002010180808080808080808101010101011
:100710002040408080000000000000000000000039
:1007200000000000FFFFFFFF010608081010602610
:10073000012C01000014004A01960000001400067C
:10074000012C01000014002601BC020000DC055D44
:10075000012C01000014004A01960000001400065C
:10076000012C0100001400260120030000E8030012
:1007700000F40126012C01000014004A019600003B
:1007800000140006012C01000014002601BC020028
:1007900000DC055D012C01000014004A01960000F8
:1007A00000140006012C01000014002601200300A3
:1007B00000E8030080930050000000F40100800B6B
:1007C00002640000000A000B02640000000A00BA84
:1007D0000296000000F4010080080B0002020201F2
:1007E00000090400000102020000052400100105B8
:1007F00024010101042402060524060001070581E5
:100800000310004009040100020A0000000705026D
:10081000024000000705830240000004030904129F
:10082000010002EF02014041233680000101020372
:100830000141726475696E6F204C4C4300417264D3
:1008400075626F790000000000003E5B4F5B3E3E2A
:100850006B4F6B3E1C3E7C3E1C183C7E3C181C576C
:100860007D571C1C5E7F5E1C00183C1800FFE7C310
:10087000E7FF0018241800FFE7DBE7FF30483A06DF
:100880000E2629792926407F050507407F05253F4B
:100890005A3CE73C5A7F3E1C1C08081C1C3E7F1437
:1008A000227F22145F5F005F5F06097F017F006681
:1008B00089956A606060606094A2FFA29408047EDB
:1008C000040810207E201008082A1C08081C2A088A
:1008D000081E101010100C1E0C1E0C30383E383044
:1008E000060E3E0E06000000000000005F00000043
:1008F00007000700147F147F14242A7F2A12231371
:1009000008646236495620500008070300001C2284
:1009100041000041221C002A1C7F1C2A08083E08B6
:1009200008008070300008080808080000606000B7
:1009300020100804023E5149453E00427F400072AB
:10094000494949462141494D331814127F10274522
:100950004545393C4A494931412111090736494940
:100960004936464949291E00001400000040340061
:100970000000081422411414141414004122140815
:1009800002015909063E415D594E7C1211127C7FCD
:10099000494949363E414141227F4141413E7F49DB
:1009A0004949417F090909013E414151737F0808C6
:1009B000087F00417F41002040413F017F08142211
:1009C000417F404040407F021C027F7F0408107F2F
:1009D0003E4141413E7F090909063E4151215E7F6A
:1009E00009192946264949493203017F01033F403D
:1009F00040403F1F2040201F3F4038403F631408C5
:100A0000146303047804036159494D43007F414155
:100A1000410204081020004141417F040201020408
:100A20004040404040000307080020545478407F75
:100A3000284444383844444428384444287F3854AF
:100A400054541800087E090218A4A49C787F080456
:100A5000047800447D40002040403D007F10284441
:100A60000000417F40007C047804787C080404780E
:100A70003844444438FC1824241818242418FC7CD6
:100A800008040408485454542404043F44243C40BB
:100A900040207C1C2040201C3C4030403C4428101E
:100AA00028444C9090907C4464544C440008364157
:100AB0000000007700000041360800020102040235
:100AC0003C2623263C1EA1A161123A4040207A38E0
:100AD0005454555921555579412154547841215543
:100AE00054784020545579400C1E52721239555595
:100AF0005559395454545939555454580000457C6B
:100B0000410002457D420001457C40F0292429F046
:100B1000F0282528F07C545545002054547C547C02
:100B20000A097F4932494949323248484832324AF3
:100B30004848303A4141217A3A42402078009DA00D
:100B4000A07D39444444393D4040403D3C24FF248D
:100B500024487E4943662B2FFC2F2BFF0929F620C2
:100B6000C0887E090320545479410000447D4130FF
:100B700048484A32384040227A007A0A0A727D0D8B
:100B800019317D2629292F28262929292630484D43
:100B90004020380808080808080808382F10C8AC92
:100BA000BA2F102834FA00007B000008142A1422FF
:100BB00022142A14089500220095AA005500AAAA1A
:100BC00055AA55AA000000FF00101010FF001414D1
:100BD00014FF001010FF00FF1010F010F014141498
:100BE000FC001414F700FF0000FF00FF1414F404CD
:100BF000FC141417101F10101F101F1414141F00C2
:100C0000101010F0000000001F101010101F101026
:100C10001010F010000000FF101010101010101035
:100C200010FF10000000FF140000FF00FF00001F75
:100C300010170000FC04F414141710171414F40413
:100C4000F40000FF00F714141414141414F700F740
:100C5000141414171410101F101F141414F414106B
:100C600010F010F000001F101F0000001F14000003
:100C700000FC140000F010F01010FF10FF1414140A
:100C8000FF141010101F00000000F010FFFFFFFF06
:100C9000FFF0F0F0F0F0FFFFFF0000000000FFFFAA
:100CA0000F0F0F0F0F38444438447C2A2A3E147E1D
:100CB00002020606027E027E026355494163384401
:100CC000443C04407E201E2006027E020299A5E7D5
:100CD000A5991C2A492A1C4C7201724C304A4D4D70
:100CE000303048784830BC625A463D3E4949490058
:100CF0007E0101017E2A2A2A2A2A44445F44444074
:100D0000514A444040444A51400000FF0103E08002
:100D1000FF000008086B6B083612362436060F09F0
:100D20000F06000018180000001010003040FF01EE
:100D300001001F01011E00191D1712003C3C3C3C24
:100D4000000000000000B6184A1911241FBECFEFA2
:100D5000DAE0DEBFCDBF12E0A0E0B1E0E8ECFCE3FA
:100D600002C005900D92A636B107D9F727E0A6E696
:100D7000B2E001C01D92A732B207E1F716E0C4EA63
:100D8000D6E004C02197FE010E943C1CC33AD10763
:100D9000C9F70E948C110C94571E0C940000FC01A2
:100DA00080918402811103C08FEF9FEF08959FB758
:100DB000F89482E08093E9002091F20030E012166E
:100DC000130614F421E030E02115310559F028987C
:100DD00084E6809383028091F10080838091F20009
:100DE000882319F09FBFC90108958BE68093E8001E
:100DF000F9CF2FB7F89483E08093E9009091E80051
:100E0000892F807295FF04C09091F20080E4891BC5
:100E10002FBF08958091AA0681110DC082E08093B2
:100E2000A60684E08093A7061092A9061092A80651
:100E300081E08093AA0686EA96E00895CF93DF9337
:100E40001F92CDB7DEB76983DC01ED91FC91028082
:100E5000F381E02D41E050E0BE016F5F7F4F0995C7
:100E60000F90DF91CF91089583E08093E900809106
:100E7000F200882319F08AE38093E80008950E9425
:100E8000F90690E00895CF93DF931F92CDB7DEB7B8
:100E9000FC018485958597FD05C02FEF3FEF3587D1
:100EA00024870BC0CE0101960E94CF06019719F44A
:100EB000898190E002C08FEF9FEF0F90DF91CF917B
:100EC00008950F931F93CF93DF931F92CDB7DEB793
:100ED0008C01FC018485958597FF0EC0CE0101969B
:100EE0000E94CF06019719F4298130E002C02FEF4C
:100EF0003FEFF80135872487F801848595850F90A9
:100F0000DF91CF911F910F910895FC018485958504
:100F100097FD0BC09FB7F89482E08093E900809121
:100F2000F2009FBF90E0019608959FB7F89482E089
:100F30008093E9008091F2009FBF90E008958F9226
:100F40009F92AF92BF92CF92DF92EF92FF920F9358
:100F50001F93CF93DF935C016B017A01809117019E
:100F6000882309F45BC080918402882309F456C069
:100F70008091820280FF05C08091E00082608093B2
:100F8000E000E70110E00AEF83E0882E9AE3992E53
:100F90002097D9F10E94F90681110AC0015009F485
:100FA0003DC061E070E080E090E00E94510DF0CF24
:100FB000282F30E0C217D3070CF48C2F4FB7F894CA
:100FC0008092E9009091E80095FF1DC0282F30E045
:100FD000C21BD30BF601982F915020F08191809382
:100FE000F100FACFC20ED31E112319F09092E8003F
:100FF00009C08091E80085FD06C09092E80011E0EC
:10100000209709F010E04FBFC3CF1111C3CF5D98F7
:1010100084E68093A5061E141F0444F081E090E04E
:10102000F5019383828380E090E001C0C701DF91E6
:10103000CF911F910F91FF90EF90DF90CF90BF90D5
:10104000AF909F908F900895DF92EF92FF920F9351
:101050001F93CF93DF93D82E8A017B01E40EF51EF8
:10106000EB01CE15DF0571F0D7FE03C0FE018491C0
:1010700001C088810E94511121968111F2CF8FEF1A
:101080009FEF01C0C801DF91CF911F910F91FF9099
:10109000EF90DF9008950F931F93CF93DF931F92EC
:1010A000CDB7DEB782E0898342E450E069ED77E0B6
:1010B00080E80E9424080E940A07DC0112960D9124
:1010C0001C9113970115110569F0D801ED91FC9160
:1010D0000280F381E02DBE016F5F7F4FC80109954B
:1010E00097FF07C089810F90DF91CF911F910F91DA
:1010F0000895F80100851185E5CF80E0E5E8F2E08C
:1011000081118FEF002481938193819381930394C4
:10111000D1F7EEE8F6E0128A118A108A1786089550
:10112000009769F0FC0101900020E9F73197AF01C9
:10113000481B590BBC018EE896E00C94D50B80E05F
:1011400090E00895CF93DF930E949008EC018FE424
:1011500091E00E9490088C0F9D1FDF91CF91089520
:10116000FC0180918B0690918C06892B21F421E063
:10117000309749F413C08091870690918806309784
:1011800031F421E0FC018081882341F006C0BF01D9
:101190000E94471E21E0892B09F020E0822F08954C
:1011A000009771F0FC0101900020E9F73197AF0141
:1011B000481B590BBC0187E896E00E94300D04C023
:1011C00087E896E00E941E0D87E896E00895AF92AA
:1011D000BF92CF92DF92EF92FF920F931F93CF9324
:1011E000DF937B01EC015C01A40EB11C6B01C20E0C
:1011F000D11CCA15DB05ECF48701F7FE10C000E036
:1012000010E00DC00817190794F4C038D10528F470
:1012100041E0B801CE010E944E100F5F1F4FC60182
:1012200021E4C216D10474F380E490E0EBCF219660
:10123000E0CFDF91CF911F910F91FF90EF90DF9062
:10124000CF90BF90AF900895E5E8F2E0A0E0B8E05D
:1012500000800EBC8111012C1197A0FDFDCF0192E1
:10126000B9F70DB408951F920F920FB60F92112483
:101270008F939F938091E1009091E100937F9093F1
:10128000E10083FF0FC01092E90091E09093EB0022
:101290001092EC0092E39093ED001092840298E09B
:1012A0009093F00082FF20C093E09093E90090912A
:1012B000F200992319F09AE39093E8009091A50623
:1012C000992339F09091A50691509093A506992302
:1012D00089F190918302992339F090918302915082
:1012E00090938302992341F184FF10C08091E20022
:1012F0008E7E81608093E2008091E1008F7E8093FA
:10130000E100809182028E7E806111C080FF16C054
:101310008091E2008E7E80618093E2008091E10006
:101320008E7E8093E100809182028E7E8160809328
:10133000820204C05D9ACDCF289AD6CF9F918F911B
:101340000F900FBE0F901F9018951F920F920FB61F
:101350000F921124CF92DF92EF92FF920F931F937F
:101360002F933F934F935F936F937F938F939F93AD
:10137000AF93BF93EF93FF93CF93DF93CDB7DEB7D8
:101380006C97DEBFCDBF1092E9008091E80083FF2B
:10139000EDC168E0CE0145960E947F1182EF8093F7
:1013A000E8008D8987FF05C09091E80090FFFCCF91
:1013B00003C09EEF9093E800982F907609F0C6C086
:1013C0009E892F89188D91110CC0803829F4809145
:1013D00081028093F10002C01092F1001092F1009E
:1013E00048C1422F50E0512B913051F4811141C13D
:1013F0004130510509F03DC1809181028D7F0BC0C4
:10140000933061F4811135C14130510509F031C18A
:10141000809181028260809381022BC1953041F4DA
:101420008091E80080FFFCCF20682093E30021C179
:10143000963009F05FC0EB8CFC8C1092E9001092A2
:101440007F0210927E02123091F510927D0210926E
:101450007C020E944B0899E0BE016F5F7F4FDB0169
:10146000E92F1D92EA95E9F799831A8391E09E830B
:1014700090EA98879AEF998720917E0230917F02B7
:10148000275F3F4F3C832B838D831092E90010929E
:101490007F0210927E02F0927D02E0927C0249E08F
:1014A00050E080E00E9424080E944B08E2C0F092C5
:1014B0007D02E0927C020E940A07DC011296ED9008
:1014C000FC901397E114F10409F4C0C0D701ED9129
:1014D000FC910480F581E02DBE016B5E7F4FC7015A
:1014E0000995009719F00CF0C4C0C7C0F701E0845B
:1014F000F184E8CF973009F4C0C0983021F481E03E
:101500008093F100B6C0993009F0B3C0837009F040
:10151000B4C0E3E2F1E081E021E036E39081992379
:1015200061F08093E9002093EB0091919093EC009F
:101530003093ED008F5F873089F78EE78093EA0064
:101540001092EA008F898093840293C08B8D9C8DCA
:101550001092E90010927F0210927E0290937D0219
:1015600080937C02898D811156C08E899D89913A24
:1015700059F4813209F081C047E050E060E171E048
:1015800080E00E94240875C0913209F076C0833251
:1015900089F4888D90E0982F88272F89822BA0E0EE
:1015A000B0E080930C0190930D01A0930E01B093D5
:1015B0000F015FC0803269F48091E80082FFFCCFA8
:1015C00067E080E191E00E947F118BEF8093E8005B
:1015D00006C0823209F04DC08F8980931701809137
:1015E0008002882319F0EEEFFAE002C0E0E0F8E0B4
:1015F0008091100190911101A0911201B0911301FD
:10160000803B9440A105B10509F07BC08091170192
:1016100080FF93C076C00E940A07DC0112960D91EC
:101620001C9113970115110541F1D801ED91FC9121
:101630000190F081E02DBE016B5E7F4FC8010995DE
:10164000811117C0F80100851185ECCF113009F424
:101650004EC0133091F48F89882309F445C082303D
:1016600081F440E867E08DE398E00E9479188823D0
:1016700021F08EEF8093E80079C081E28093EB0047
:1016800075C0813029F440E86BE081E398E0EDCF4C
:10169000833099F70E940A07DC011296ED90FC90C6
:1016A00013978E010F5F1F4F6801E114F10479F069
:1016B000D701ED91FC910680F781E02DB801C701BB
:1016C0000995080F111DF701E084F184EECFD801D0
:1016D0001C92F60101900020E9F73197BF016C19C7
:1016E0007D0940E0C601C1CF6BE178E002C06FE147
:1016F00078E06115710509F2FB01449150E080E842
:1017000040CF0FB6F894A8958091600088618093CF
:101710006000109260000FBEA895EE3F2AE0F2072D
:1017200039F08091FE0A9091FF0A91838083A1CFC6
:101730001092FF0A1092FE0A9CCFEE3F8AE0F80753
:1017400031F0808191819093FF0A8093FE0A87E7B0
:1017500097E7918380839BE088E10FB6F894A89582
:10176000809360000FBE9093600083CF6C960FB69D
:10177000F894DEBF0FBECDBFDF91CF91FF91EF9107
:10178000BF91AF919F918F917F916F915F914F9199
:101790003F912F911F910F91FF90EF90DF90CF908D
:1017A0000F900FBE0F901F901895CF92DF92EF927F
:1017B000FF920F931F93CF93DF936C017A018B01FC
:1017C000C0E0D0E0CE15DF0589F0D8016D918D0124
:1017D000D601ED91FC910190F081E02DC6010995B3
:1017E000892B11F47E0102C02196ECCFC701DF9155
:1017F000CF911F910F91FF90EF90DF90CF900895C0
:101800003FB7F89480911F0790912007A09121077E
:10181000B091220726B5A89B05C02F3F19F001966D
:10182000A11DB11D3FBFBA2FA92F982F8827820F66
:10183000911DA11DB11DBC01CD0142E0660F771FB6
:10184000881F991F4A95D1F7089580911707E09155
:101850001507F0911607882349F0CF01029690935F
:10186000160780931507859194910895CF010296EC
:101870009093160780931507808191810895CF92E8
:10188000DF92EF92FF920F931F93CF93DF930E940B
:10189000250C811520E8920761F4809171008D7FFD
:1018A00080937100109291004698479810926602BA
:1018B0008BC021E020936602813020E8920751F42A
:1018C0008091130790911407909316078093150742
:1018D0000E94250C97FD05C020911207222309F4D0
:1018E0003FC02091110721113BC021E02093180730
:1018F000EC01DF77209769F481E08093190746981F
:101900003FE9C32E3FE0D32EE12CF12CCAEFD0E00B
:1019100014C08E0120E030E060E472E48FE090E0DB
:10192000A90198010E94E61A69017A0181E0C81AAA
:10193000D108E108F10810921907E0918506F091AD
:1019400086060995811103C081E080931907809173
:1019500018078823B9F180911907811133C003C09A
:1019600010921807C5CF46992DC0479A0E94250CA2
:10197000009771F09C01DE010E94711BDC01CB011C
:1019800029E0B595A795979587952A95D1F703C036
:101990008FEF9FEFDC01109290002AE020939100DE
:1019A000D0929900C092980080931A0790931B07D9
:1019B000A0931C07B0931D078091710082608093F3
:1019C000710002C04798D2CFDF91CF911F910F9144
:1019D000FF90EF90DF90CF900895809110070895C9
:1019E0000895089580E090E008950E94391E0F93B5
:1019F0001F93CF93DF93EC0188819981009729F0A1
:101A00002A813B812617370788F48B016F5F7F4F50
:101A10000E946F1D009761F0998388831B830A835E
:101A20002C813D81232B11F4FC01108281E001C047
:101A300080E0DF91CF911F910F910895CF93DF93B5
:101A4000EC0188819981009711F00E94D71C1982BE
:101A500018821D821C821B821A82DF91CF91089509
:101A6000EF92FF920F931F93CF93DF93EC017B01D3
:101A70008A01BA010E94F70C811104C0CE010E94B4
:101A80001E0D07C01D830C83B701888199810E94B8
:101A9000501ECE01DF91CF911F910F91FF90EF90DB
:101AA00008958F929F92AF92BF92CF92DF92EF9262
:101AB000FF926B017C010E94000C4B015C01C11480
:101AC000D104E104F104F1F00E94000CDC01CB012F
:101AD00088199909AA09BB09883E9340A105B10557
:101AE00070F321E0C21AD108E108F10888EE880EEF
:101AF00083E0981EA11CB11CC114D104E104F104BF
:101B000019F7DDCFFF90EF90DF90CF90BF90AF90AF
:101B10009F908F9008951F920F920FB60F921124ED
:101B20002F933F938F939F93AF93BF9380916702BF
:101B300090916802A0916902B0916A0230911E07EB
:101B400023E0230F2D3720F40196A11DB11D05C000
:101B500026E8230F0296A11DB11D20931E07809336
:101B6000670290936802A0936902B0936A02809121
:101B70001F0790912007A0912107B091220701969D
:101B8000A11DB11D80931F0790932007A0932107EB
:101B9000B0932207BF91AF919F918F913F912F9169
:101BA0000F900FBE0F901F9018951F920F920FB6B7
:101BB0000F9211242F933F934F935F936F937F93D3
:101BC0008F939F93AF93BF93EF93FF9380911A07E7
:101BD00090911B07A0911C07B0911D07892B8A2BA0
:101BE0008B2B81F18091190781110BC098B180E492
:101BF000892788B980911807882319F088B18058FF
:101C000088B980911A0790911B07A0911C07B09189
:101C10001D07181619061A061B06B4F480911A0738
:101C200090911B07A0911C07B0911D070197A10976
:101C3000B10980931A0790931B07A0931C07B093D8
:101C40001D0702C00E943F0CFF91EF91BF91AF9121
:101C50009F918F917F916F915F914F913F912F91C4
:101C60000F900FBE0F901F9018959C01E1E7F0E0D8
:101C700090819D7F908381E08093170730931607B2
:101C80002093150730931407209313070C943F0CEF
:101C90004F925F927F928F929F92AF92BF92CF921C
:101CA000DF92EF92FF920F931F93CF93DF9300D0B9
:101CB00000D0CDB7DEB729011C2DA02EB12C9C0180
:101CC0002A0D3B1D121613060CF0B3C18038910586
:101CD0000CF0AFC1FB01EE0DF11D1E161F060CF03E
:101CE000A8C1603471050CF0A4C14115510509F477
:101CF000A0C1E62FE770FE2EFB0177FD3796A3E02B
:101D0000F595E795AA95E1F7AE2F77FF04C0FF2080
:101D100011F0AFEFAE0F97FF05C0EE27FF27E81BCE
:101D2000F90B02C0E0E0F0E02038310524F020E8B3
:101D3000722E781A01C0702E7E1A6A2F0A2E000C9D
:101D4000770BAF3F1CF4D62ED09401C0D12C21E0EC
:101D50003E2D377009F420E0E694E694E694E20E16
:101D60006E0D711D693071051CF028E0E22EEA1A33
:101D7000ED183D2D3A0FDC0120E83203A00DB11D16
:101D80001124AE0FBF1FD09EE00DF11D11244E0F88
:101D90005F1F81E090E04C010F2C02C0880C991C61
:101DA0000A94E2F7133009F403C1A0F4113009F4E6
:101DB000B5C0123009F03DC18FEF889DB001899DFB
:101DC000700D1124609570957C836B835C802E2D43
:101DD000230F2BC01A3F31F01B3F09F02AC12E2DD3
:101DE000230F88C02E2D230F51C0FA01E00FF11FE1
:101DF000E491E89D6001E99DD00C1124DA82C9824A
:101E000037FD07C0FC01E080EE2DE623CE2AFC0161
:101E1000C082F11013C00F5F1F4F0196071528F302
:101E20003F5F4A0D5B1DA058BF4F321709F401C137
:101E3000CD018B579D4F00E010E0F0CF37305CF7BD
:101E4000FC01E058FF4FD080D520CA80DC28D0822A
:101E5000E2CFFA01E60FF71FE491E89D8001E99DCA
:101E6000100D11241A83098337FD04C0FC01108171
:101E7000012B0083F11013C06F5F7F4F0196671530
:101E800040F33F5F4A0D5B1DA058BF4F321709F466
:101E9000D0C0CD018B579D4F60E070E0F0CF373060
:101EA0005CF78C0100581F4FF801E080EA81EE2AB0
:101EB000F801E082E1CFFA01E00FF11FE491E89D23
:101EC000C001E99D900D11249A83898337FD05C0D7
:101ED0008095FB01908189238083F11014C00F5FEE
:101EE0001F4F6F5F7F4F071530F33F5F4A0D5B1D3C
:101EF000A058BF4F321709F49CC0BD016B577D4FEE
:101F000000E010E0F0CF373054F7FB01E058FF4F0E
:101F10008A818095908189238083E1CFC2018E0FD1
:101F20009F1F2E2D230F321709F483C0BD016B575D
:101F30007D4F6B0100E010E0071590F5FC01E00F0C
:101F4000F11FE491E89DB001E99D700D11246095A9
:101F500070957C836B83FA01E00FF11FE491E89D9B
:101F60002001E99D500C11245A82498237FD05C099
:101F7000F60170816723462A4082FF2059F03730EE
:101F80004CF4F601E058FF4F70816C8167237A8131
:101F9000672B60830F5F1F4FFFEFCF1ADF0ACCCF95
:101FA0003F5F4A0D5B1D8A0D9B1DA058BF4FBBCFE5
:101FB000C72CD12CE40FF51FAB57BD4F60E870E084
:101FC0006C197D09AC18BD088501000F111F572D34
:101FD0002E2DCF93DF93ED01EF96EF962296A590ED
:101FE000C590FF2059F0A89C5001C89C6001373073
:101FF0002CF4E880D094ED20EB28E99233233AF0DA
:10200000EC90C094EC20EA28ED920C940810119604
:102010005A9529F72A9551F0572D33951124E00F41
:10202000F11DA60FB11DC60FD11DD9CFDF91CF91E4
:1020300011240F900F900F900F90DF91CF911F916F
:102040000F91FF90EF90DF90CF90BF90AF909F9057
:102050008F907F905F904F9008952D9A0895BC01C6
:1020600080E090E00C94510D8FB18095807F669B4D
:1020700088601C9B846008953E9A3F9A81E080931B
:102080001007089582E090E00E94D01A81110C940C
:102090003C10109210073E983F98089590E1282F29
:1020A00081E061FD84E060FD880F62FD8295687FBC
:1020B000969FD0011124A20FAB57BD4F9C91982B36
:1020C00040FF98279C9308952F923F924F925F92E2
:1020D0006F927F928F929F92AF92BF92CF92DF9238
:1020E000EF92FF920F931F93CF93DF93CDB7DEB79D
:1020F00027970FB6F894DEBF0FBECDBFFC016A3044
:1021000069F425898189928938E0239F800D911D8A
:102110001124928B818B108A1786A6C06D3009F42A
:10212000A3C09F838E8335882489298333893A838A
:1021300061887288E784F08880E8E816F104C4F0CA
:10214000AE81BF8155962C915597422F50E01F9636
:102150008D919C915097B6E02B9F800D911D11247D
:10216000EE81FF81908B87872689211167C07CC013
:10217000F0E46F16710424F7C70125E0329E800D4C
:10218000911D112418161906DCF6432C512CC3019D
:1021900038E0339E800D911D11241816190684F61F
:1021A00085E0689F800111240B5B174F20E0F80148
:1021B0002490253009F4212C430158E020FC02C072
:1021C000398101C03A8131110BC0F9818A81F8133C
:1021D00007C026945150840C951C5111EFCF25C097
:1021E00067018C2D8E198315A0F754018A2D88194B
:1021F0008315B8F490E8C916D10478F4A0E4AA16BF
:10220000B10458F4432FB501C6012C833B835D8391
:102210000E944E105D813B812C81BFEFAB1ABB0A3F
:10222000E5CFEFEFCE1ADE0ADCCF2F5FE40CF51C12
:102230000F5F1F4F263009F0BACF82CF6AEF6403D9
:102240009001659F300D112420583F4F2817390702
:102250005CF4AE81BF81ED91FC9111970190F0810A
:10226000E02D6AE0CD01099581E090E027960FB658
:10227000F894DEBF0FBECDBFDF91CF911F910F91BC
:10228000FF90EF90DF90CF90BF90AF909F908F9096
:102290007F906F905F904F903F902F9008950C9497
:1022A000D01A40917E0250917F0220917C023091A1
:1022B0007D0242175307B4F49091E8009570E1F362
:1022C0009091E80092FD19C08093F10080917E0208
:1022D00090917F0201968F739927892B19F48EEFC5
:1022E0008093E80080917E0290917F020196909306
:1022F0007F0280937E0281E0089580E0089561501E
:1023000030F02091F100FC0120830196F8CF28984D
:1023100084E6809383020895CF93DF93CDB7DEB731
:102320002A970FB6F894DEBF0FBECDBF789484B560
:10233000826084BD84B5816084BD85B5826085BDC1
:1023400085B5816085BD80916E00816080936E004F
:102350001092810080918100826080938100809141
:1023600081008160809381008091800081608093F2
:102370008000809191008260809391008091910013
:1023800081608093910080919000816080939000A3
:102390008091C10084608093C1008091C1008260FF
:1023A0008093C1008091C10081608093C1008091C1
:1023B000C30081608093C3008091C00082608093DD
:1023C000C0008091C20081608093C20080917A0039
:1023D000846080937A0080917A00826080937A0092
:1023E00080917A00816080937A0080917A00806881
:1023F00080937A00109284021092810210928202DD
:102400008091D70081608093D70080EA8093D800C4
:1024100089B5806189BD89B5826089BD09B400FE36
:10242000FDCF61E070E080E090E00E94510D80916E
:10243000D8008F7C80618093D8008091E000807FFD
:102440008093E0008091E1008E7E8093E1008DE03A
:102450008093E200559A209AEEEFFFE785919491E0
:102460008B3F9C4D19F481E08093800281EC809336
:102470007C0085B1806F85B984B1877E84B984B1D1
:10248000876E84B95E9A5F988AB1806D8AB9769AB0
:102490006E9881B3806F81BB899880B38D7080BB4B
:1024A00080E58CBD81E08DBD85E090E00E942F101D
:1024B0005F9A85E090E00E942F105E985C98ECE5B2
:1024C000F1E08DE08E0F94919EBD00000DB407FEEB
:1024D000FDCF31968E13F7CF5C9A81E8809364002C
:1024E0008091650081608093650080E00E942409EE
:1024F0000E94341087FF24C05C9885EA8EBD0000DE
:102500000DB407FEFDCF5C9A2E982F982D988091E0
:10251000640080628093640081E083BF889513BE6D
:10252000FCCF2D980E9434108478843871F00E947A
:1025300034108471843131F188EC90E00E942F10C6
:102540000E94341082FDEDCF3AC00E942D1088EC1D
:1025500090E00E942F102F9882E090E00E94D01A05
:102560008F3F29F06FEF82E090E00E94D81A84EF4D
:1025700091E00E942F102F9A0E94341084788438A2
:10258000D9F3D5CF0E942D1088EC90E00E942F1037
:102590002E9882E090E00E94D01A882329F060E013
:1025A00082E090E00E94D81A84EF91E00E942F1000
:1025B0002E9A0E94341084718431D9F3BDCF0E94C9
:1025C0002D100E94421081E090E00E944F1182FB8A
:1025D000772470F881FF8EC071102E9800EF1FEFE6
:1025E00068E0A62EB12C0E94341086FF04C02E9AFB
:1025F0002F9A2D9A7FC0772029F00430110511F40D
:102600002E9A2F9881E00E942409980117FF04C098
:1026100022273327201B310B27703327C80117FDD2
:10262000079653E0959587955A95E1F717FF05C0F2
:102630000197A501421B530B9A017C01F694FE2CD5
:10264000EE24F794E79440E050E02501421A530A43
:10265000B70160587F4F4B018F3F7FEF970744F4DE
:102660000196485A5F4F7401403B510589F721C0DC
:10267000D701A75EBC4F60E070E08F3FEFEF9E0791
:1026800009F462C3FB01E40FF51FE455FF4FE49129
:102690006D01C818D908CE0CDF1CF0E01F01022E16
:1026A00001C0220C0A94EAF7F601608026282082F5
:1026B0004BC380E00E9424098FE090E00E942F101D
:1026C0000F5F1F4F0931110509F08DCF772011F0F1
:1026D0002F9A2D9880E991E00E942F100E942D10D2
:1026E000E0919206F09193060190F081E02D82E94D
:1026F00096E0099582E390E00E942F100E9434102A
:102700008111F8CF80E18093990689E691E00E94DB
:10271000350E0E947D080E9442100E943C1093E0FA
:10272000292E312C8FB7F89440916702509168029E
:102730006091690270916A028FBF80919A06F42FAE
:10274000F81B8F2F90919B06992329F0F0939C06FC
:1027500010929B06F1C290919906F91748F48F5F89
:10276000891708F0E9C281E083BF889513BEE4C2EF
:10277000BB24B394B0929B0640939A068091950631
:1027800090919606019690939606809395060E94E6
:102790007D08C0907A02D0907B0221E0C216D1045D
:1027A00009F4B4C042E0C416D10409F49CC11092EB
:1027B0009E0610929D061092A00610929F06CD28AC
:1027C00009F08CC28FE491E00E94900882E591E0CC
:1027D0000E94A20883E691E00E94A20886E791E0A9
:1027E0000E94A2088DE891E00E94A2088AE991E087
:1027F0000E94A2088FE491E00E9490081A82198238
:102800001C821B821E821D824CE050E06DEA71E04A
:10281000CE0101960E94300D80918B0690918C061E
:10282000E0908706F09088060D811E81E114F10486
:1028300009F4A5C20097A9F0080F191FB801CE012D
:1028400001960E94F70C882309F499C229813A81E4
:102850008D819E81B701820F931F0E94501E1E839F
:102860000D834D815E8169817A818EE896E00E94B8
:10287000D50B8FE491E00E94900889819A810E9493
:10288000D71C0E94341084FF0BC00E94341087FFB5
:1028900007C08091780290917902892B09F474C263
:1028A0000E94341085FF0BC00E94341086FF07C0C1
:1028B0008091780290917902019709F46CC20E948C
:1028C000341085FF0BC00E94341087FF07C0809131
:1028D000780290917902029709F464C20E94341040
:1028E00084FF0BC00E94341086FF07C080917802DD
:1028F00090917902039709F45AC20E94341083FF21
:1029000062C28091760281115EC267C210929E06F9
:1029100010929D061092A00610929F06009106014B
:1029200010910701E0900401F090050124E044E0DB
:10293000B801C7010E94E70880910201909103014C
:102940008230910509F467C08330910509F48DC088
:10295000019709F0B7C00E94341087FF0FC0B092F2
:102960006E020150110917FD05C010930701009375
:10297000060104C010920701109206010E94341053
:1029800084FF16C081E080936D02809106019091D2
:10299000070101968D3391052CF4909307018093E4
:1029A000060106C06CE370E07093070160930601B6
:1029B0000E94341085FF11C081E080936C0271E0A9
:1029C000E71AF108F7FC05C0F0920501E092040156
:1029D00004C010920501109204010E94341086FF79
:1029E00011C081E080936B028091040190910501F8
:1029F00001968D37910514F08CE790E090930501D6
:102A0000809304010E94341083FF64C08091760299
:102A1000811160C0D5C24801B4E08B0E911C5701F2
:102A2000E4E0AE0EB11C24E044E0B401C5010E9414
:102A3000E708F4E0EF1AF10824E044E0B401C7012C
:102A40000E94E7080450110924E044E0B801C501E0
:102A50000E94E70824E044E0B801C7010E94E708AB
:102A600080916602811136C031C024E044E0B80193
:102A7000C70106960E94E70824E044E0B801C701B8
:102A800006970E94E708B8016A5F7F4F24E044E0A0
:102A9000C7010E94E708B8016650710924E044E0CC
:102AA000C7010E94E70880916602811113C08FE27E
:102AB00097E00E94350E42E050E050937B02409335
:102AC0007A0204C030927B0220927A02D0920301F3
:102AD000C09202010E94341082FF0DC180916F02EA
:102AE000811109C1ECC280919506909196066FE024
:102AF00070E00E94281C892B09F053C080910001CE
:102B0000909101018230910521F1A4F4019709F01F
:102B100042C0D0920101C092000183E884BD8FEFD2
:102B200087BD81EF809380001092880082E38093BC
:102B30008A0037C083309105A1F0049761F581E0E8
:102B400090E0909301018093000183E884BD8FEFB2
:102B500019C0309201012092000183E884BD8DEC00
:102B600011C084E090E0909301018093000183E81C
:102B700084BD8FEF87BD81EF8093800082E38093D7
:102B8000880006C087BD81EF809380001092880086
:102B900010928A0006C081E090E09093010180933A
:102BA0000001EDE2F3E00491EEE2F3E0E49082E074
:102BB000C82E20E030E04FE253E060E070E080E0BB
:102BC00090E00E94480E80910001909101018430B4
:102BD000910519F08230910589F4EBE6F2E0049159
:102BE000ECE6F2E0E490CC24C3942BEA31E04DE62D
:102BF00052E060E170E080E390E026C08130910512
:102C000089F4EBE6F2E00491ECE6F2E0E490CC2407
:102C1000C3942BEA31E04DE652E06FE070E088E3C8
:102C200090E012C0039791F4EBE6F2E00491ECE639
:102C3000F2E0E490CC24C3942BEA31E04DE652E07C
:102C40006FE070E088E290E00E94480E10929E06CD
:102C500010929D061092A00610929F062AE939E96B
:102C600049E95EE3609108017091090180910A01D0
:102C700090910B010E94231C18161CF58091700284
:102C8000909171028230910599F03CF4009769F0BF
:102C90000197A1F48FED91E016C08330910559F0B2
:102CA000049761F488E192E00EC08BEC91E00BC0D8
:102CB00081EF91E008C084E092E005C08AE292E0F2
:102CC00002C082E392E00E94A2080E94341083FFB7
:102CD00012C08091760281110EC0F5C187E492E0A6
:102CE0000E9490080E94341083FF05C080917602F4
:102CF000882309F4F7C180E00E9424090E9434105F
:102D000083FF109276020E94341082FF10926F02AD
:102D10000E94341087FF10926E020E94341084FFCC
:102D200010926D020E94341085FF10926C020E9476
:102D3000341086FF10926B0280E090E0892B09F43A
:102D4000F1CC0E940000EBCC2115310581F0FB0194
:102D5000E40FF51FE455FF4FE491F0E0042C02C0AE
:102D6000F595E7950A94E2F7DC90ED29EC936F5F17
:102D70007F4F11966835710509F07FCC71CCCE017B
:102D800001960E941E0D6DCD81E090E09093790236
:102D90008093780285CD42E050E0509379024093D1
:102DA00078028DCD309279022092780297CD1092E0
:102DB0007902109278028FEB97E00E94350E81E045
:102DC000809377029ACD0E94341082FF94CF809135
:102DD0006F02882309F493C08ECF81E0809376023E
:102DE00010927902109278022FB7F89460916702DE
:102DF000709168028091690290916A022FBF6115FB
:102E000071058105910511F00E94A31920E030E0C1
:102E100040E052E4609108017091090180910A013B
:102E200090910B010E94121A9B01AC0160E070E0CE
:102E300080E093E40E94801B0E94ED1B9B01AC018B
:102E400016161706180619066CF46F83388749871B
:102E50005A870E949E192F81388549855A850E947C
:102E6000E61A03C060E070E0CB01709375026093D6
:102E7000740220E030E040E052E46091080170917B
:102E8000090180910A0190910B010E94121A9B0185
:102E9000AC0160E070E080E892E40E94801B0E9438
:102EA000ED1B9B01AC0116161706180619066CF4EB
:102EB0006F83388749875A870E949E192F813885EA
:102EC00049855A850E94E61A03C060E070E0CB0194
:102ED00070937302609372020E949E1924E030E0A6
:102EE00040E050E00E94E61A709371026093700215
:102EF00081E090E090937B0280937A02FCCE81E0A7
:102F000080936F02109279021092780284EC91E023
:102F10000E94B008882349F08AEB91E00E94D00813
:102F200060E070E080E090E43AC08AEB91E00E94BB
:102F3000B008882389F08FEB91E00E94D00880E0F0
:102F400090E0A0E0BFE38093080190930901A09373
:102F50000A01B0930B01CFCE8FEB91E00E94B00835
:102F6000882331F180917702811111C084EC91E0C6
:102F70000E94D00840E050E060E87FE34093080101
:102F80005093090160930A0170930B01B4CE80E65F
:102F900092E00E94D00860E070E080E89EE36093D9
:102FA00008017093090180930A0190930B01A3CE4D
:102FB00080E692E00E94B008882309F49CCED6CF28
:102FC00071E070937602E0900401F09005010091A9
:102FD000740210917502E016F1060CF465C0809041
:102FE000080190900901A0900A01B0900B0120E027
:102FF00030E040E052E4C501B4010E94121A2B01F6
:103000003C01B701FF0C880B990B0E94B3196B01AF
:103010007C01B801110F880B990B0E94B319A30111
:1030200092010E94811B9B01AC01C701B6010E9465
:10303000AC191816CCF1609106017091070100914E
:103040007202109173026017710774F1072E000C61
:10305000880B990B0E94B3196B017C01B801110F09
:10306000880B990B0E94B319A30192010E94811B46
:103070009B01AC01C701B6010E94AC191816A4F05F
:10308000309203012092020126E636E646E65FE32F
:10309000C501B4010E94AC1987FF03C091E0909371
:1030A00077028FEB97E008C0A2E0B0E0B093030195
:1030B000A093020185EB97E00E94350E0BCD81E0D5
:1030C00080936F0211C081E08093760283E884BD13
:1030D0008FEF87BD81EF809380001092880010925F
:1030E0008A0002C0B092760210927B0210927A029D
:1030F00002CECF92DF92EF92FF920F931F93CF9366
:10310000DF931F92CDB7DEB7182F062FE42E862F40
:10311000880F8E5F99830E94511183E00E945111A4
:10312000F12EC12E9981D92E8C2D8F19801798F4EC
:10313000F601E7FE02C0849101C080810E94511116
:10314000182F80E00E9451118123FFEFCF1ADF0A70
:103150008111EACF01C081E00F90DF91CF911F91E3
:103160000F91FF90EF90DF90CF900895E2EBF6E0A3
:103170001382128288EE93E0A0E0B0E0848395830E
:10318000A683B7838DE291E0918380838FEF9FEFD9
:1031900095878487EEE8F6E0138212821186128604
:1031A00080E183871086178215868FE391E09183F3
:1031B00080838DE491E095838483108A1786128A38
:1031C000118A81E0838B148A858B168A8DEE9CE0B0
:1031D000909386068093850680E090E890930F0791
:1031E00080930E0746983E9A47983F9AE7E8F6E0A4
:1031F00011821082138212821582148246E050E0FE
:1032000064EC71E0CF010C94300D0F931F93CF93BA
:10321000DF938C0181E090E00E944F1180FF32C06B
:103220008AE090E00E944F119FEF980F9E3F50F56B
:1032300022E330E0D80150963C932E931F9728E369
:1032400030E052963C932E935197CBE0D0E0D801DA
:10325000ED91FC910190F081E02D682FC801099556
:10326000CE010E944F112196C131D10581F780E036
:103270000E94240988EE93E0DF91CF911F910F9176
:103280000C942F10DF91CF911F910F910895049707
:103290000C94051980918706909188060C94D71C90
:1032A0008F929F92AF92BF92CF92DF92EF92FF9256
:1032B000CF93DF93EC01688179818A819B816115CD
:1032C00071058105910521F464E279ED8BE597E0C4
:1032D0002DE133EF41E050E00E94E61A49015A0126
:1032E0009B01AC01A7EAB1E40E94051B6B017C01C4
:1032F000ACEEB4EFA50194010E94131BDC01CB01DD
:103300008C0D9D1DAE1DBF1DB7FF03C00197A10908
:10331000B04888839983AA83BB83BC01CD019F7782
:10332000DF91CF91FF90EF90DF90CF90BF90AF9063
:103330009F908F9008950E945019089588E191E020
:103340000E94501908956093180170931901809399
:103350001A0190931B0108950E94EE1908F481E070
:103360000895E89409C097FB3EF490958095709578
:1033700061957F4F8F4F9F4F9923A9F0F92F96E9C1
:10338000BB279395F695879577956795B795F11136
:10339000F8CFFAF4BB0F11F460FF1BC06F5F7F4FD3
:1033A0008F4F9F4F16C0882311F096E911C07723E5
:1033B00021F09EE8872F762F05C0662371F096E8EE
:1033C000862F70E060E02AF09A95660F771F881FBD
:1033D000DAF7880F9695879597F90895990F000861
:1033E000550FAA0BE0E8FEEF16161706E807F907D7
:1033F000C0F012161306E407F50798F0621B730B72
:10340000840B950B39F40A2661F0232B242B252BF2
:1034100021F408950A2609F4A140A6958FEF811D95
:10342000811D08950E94251A0C94961A0E94881AEC
:1034300038F00E948F1A20F0952311F00C947F1A17
:103440000C94851A11240C94CA1A0E94A71A70F3BE
:10345000959FC1F3950F50E0551F629FF001729F39
:10346000BB27F00DB11D639FAA27F00DB11DAA1F48
:10347000649F6627B00DA11D661F829F2227B00D95
:10348000A11D621F739FB00DA11D621F839FA00D20
:10349000611D221F749F3327A00D611D231F849F70
:1034A000600D211D822F762F6A2F11249F575040C7
:1034B0009AF0F1F088234AF0EE0FFF1FBB1F661F42
:1034C000771F881F91505040A9F79E3F510580F00B
:1034D0000C947F1A0C94CA1A5F3FE4F3983ED4F31D
:1034E000869577956795B795F795E7959F5FC1F7AF
:1034F000FE2B880F911D9695879597F9089597F95A
:103500009F6780E870E060E008959FEF80EC089589
:1035100000240A94161617061806090608950024B2
:103520000A9412161306140605060895092E03942C
:10353000000C11F4882352F0BB0F40F4BF2B11F4A0
:1035400060FF04C06F5F7F4F8F4F9F4F089557FDFF
:103550009058440F551F59F05F3F71F04795880F01
:1035600097FB991F61F09F3F79F087950895121698
:1035700013061406551FF2CF4695F1DF08C0161644
:1035800017061806991FF1CF8695710561050894F5
:103590000895E894BB2766277727CB0197F908950C
:1035A000F999FECF92BD81BDF89A992780B508950B
:1035B000262FF999FECF1FBA92BD81BD20BD0FB64F
:1035C000F894FA9AF99A0FBE01960895052E97FB82
:1035D0001EF400940E94FD1A57FD07D00E944F1B55
:1035E00007FC03D04EF40C94FD1A5095409530958D
:1035F00021953F4F4F4F5F4F08959095809570955F
:1036000061957F4F8F4F9F4F08950E94711BA59F1B
:10361000900DB49F900DA49F800D911D11240895CD
:10362000B7FF0C94051B0E94051B821B930B08958A
:103630002F923F924F925F926F927F928F929F92C2
:10364000AF92BF92CF92DF92EF92FF920F931F93B0
:10365000CF93DF93CDB7DEB7CA1BDB0B0FB6F89461
:10366000DEBF0FBECDBF09942A88398848885F84A1
:103670006E847D848C849B84AA84B984C884DF8012
:10368000EE80FD800C811B81AA81B981CE0FD11DF6
:103690000FB6F894DEBF0FBECDBFED010895A1E2D5
:1036A0001A2EAA1BBB1BFD010DC0AA1FBB1FEE1FBC
:1036B000FF1FA217B307E407F50720F0A21BB30B07
:1036C000E40BF50B661F771F881F991F1A9469F783
:1036D00060957095809590959B01AC01BD01CF01DF
:1036E0000895A29FB001B39FC001A39F700D811DDB
:1036F0001124911DB29F700D811D1124911D0895FB
:103700005058BB27AA270E94981B0C94961A0E9417
:10371000881A38F00E948F1A20F039F49F3F19F46C
:1037200026F40C94851A0EF4E095E7FB0C947F1AAE
:10373000E92F0E94A71A58F3BA1762077307840784
:10374000950720F079F4A6F50C94C91A0EF4E095CB
:103750000B2EBA2FA02D0B01B90190010C01CA014B
:10376000A0011124FF27591B99F0593F50F4503EF6
:1037700068F11A16F040A22F232F342F4427585FE8
:10378000F3CF469537952795A795F0405395C9F700
:103790007EF41F16BA0B620B730B840BBAF09150B8
:1037A000A1F0FF0FBB1F661F771F881FC2F70EC057
:1037B000BA0F621F731F841F48F48795779567952A
:1037C000B795F7959E3F08F0B0CF9395880F08F016
:1037D0009927EE0F9795879508950E94F41B68949A
:1037E000B1110C94CA1A08950E94AF1A88F09F571D
:1037F00098F0B92F9927B751B0F0E1F0660F771F15
:10380000881F991F1AF0BA95C9F714C0B13091F00A
:103810000E94C91AB1E008950C94C91A672F782F35
:103820008827B85F39F0B93FCCF3869577956795CF
:10383000B395D9F73EF490958095709561957F4F3B
:103840008F4F9F4F08950E94EE1908F48FEF08954F
:10385000AA1BBB1B51E107C0AA1FBB1FA617B707B6
:1038600010F0A61BB70B881F991F5A95A9F78095D2
:103870009095BC01CD010895EE0FFF1F0590F491C6
:10388000E02D0994CF93DF938230910510F482E00C
:1038900090E0E0912507F091260720E030E0C0E0BD
:1038A000D0E0309711F14081518148175907C0F09D
:1038B0004817590761F482819381209719F09B83FF
:1038C0008A832BC0909326078093250726C0211555
:1038D000310519F04217530718F49A01BE01DF01B0
:1038E000EF010280F381E02DDCCF2115310509F1D4
:1038F000281B390B2430310590F412968D919C9140
:1039000013976115710521F0FB019383828304C035
:103910009093260780932507FD01329644C0FD0150
:10392000E20FF31F81939193225031092D933C9321
:103930003AC02091230730912407232B41F4209192
:103940001E0130911F0130932407209323072091FB
:103950001C0130911D012115310541F42DB73EB7F1
:103960004091200150912101241B350BE091230748
:10397000F0912407E217F307A0F42E1B3F0B281742
:10398000390778F0AC014E5F5F4F2417350748F0D8
:103990004E0F5F1F50932407409323078193919309
:1039A00002C0E0E0F0E0CF01DF91CF9108950F93E6
:1039B0001F93CF93DF93009709F48CC0FC013297DB
:1039C0001382128200912507109126070115110517
:1039D00081F420813181820F931F20912307309140
:1039E00024072817390779F5F0932407E093230774
:1039F00071C0D80140E050E0AE17BF0750F41296F6
:103A00002D913C911397AD012115310509F1D90193
:103A1000F3CF9D01DA013383228360817181860FA8
:103A2000971F8217930769F4EC0128813981260FCB
:103A3000371F2E5F3F4F318320838A819B81938381
:103A40008283452B29F4F0932607E093250742C093
:103A50001396FC93EE931297ED01499159919E01B3
:103A6000240F351FE217F30771F480819181840FD1
:103A7000951F029611969C938E9382819381139643
:103A80009C938E931297E0E0F0E0D80112968D910E
:103A90009C911397009719F0F8018C01F6CF8D9146
:103AA0009C9198012E5F3F4F820F931F2091230717
:103AB000309124072817390769F4309729F41092B8
:103AC00026071092250702C0138212821093240742
:103AD00000932307DF91CF911F910F910895A0E0EC
:103AE000B0E0E5E7FDE10C941C1BEC01009721F42C
:103AF000CB010E94421CB8C0FC01E60FF71F9C01DD
:103B000022503109E217F30708F4ACC0D9010D9136
:103B10001C91119706171707B0F00530110508F42E
:103B20009FC0C80104978617970708F499C00250F0
:103B30001109061B170B019311936D937C93CF0111
:103B40000E94D71C8DC05B01A01AB10A4C01800EE7
:103B5000911EA0912507B091260740E050E0E12C8E
:103B6000F12C109709F44AC0A815B905D1F56D904C
:103B70007C901197630182E0C80ED11CCA14DB044B
:103B800080F1A3014A195B096A0182E0C80ED11CC9
:103B90001296BC9012971396AC91B5E0CB16D10457
:103BA00040F0B282A38351834083D9016D937C930B
:103BB0000AC00E5F1F4FC301800F911FF90191834F
:103BC0008083EB2DFA2FE114F10431F0D701139625
:103BD000FC93EE93129744C0F0932607E0932507D9
:103BE0003FC08D919C9111974817590708F4AC017B
:103BF0007D0112960D90BC91A02DB3CF809123072B
:103C00009091240788159905E1F446175707C8F4E1
:103C100080911C0190911D01009741F48DB79EB7D2
:103C20004091200150912101841B950BE817F90761
:103C3000C8F4F0932407E0932307F90171836083AC
:103C40000FC0CB010E94421C7C01009759F0A801D3
:103C5000BE010E943E1ECE010E94D71CC70104C0B7
:103C6000CE0102C080E090E0CDB7DEB7EEE00C946C
:103C7000381B81E090E0F8940C94571EFB01DC01A6
:103C800002C001900D9241505040D8F70895FB01B9
:103C9000DC018D91019080190110D9F3990B0895E1
:103CA000FB01DC0101900D920020E1F7089516E080
:103CB000C4EAD6E004C0FE010E943C1C2196C53A2D
:083CC000D107C9F7F894FFCF0A
:103CC800010001003E000A000000803FFFFFFFFFE7
:103CD80000E10000000000000100000000002707CC
:103CE800800000C18081000000000000001E079FC6
:103CF800073F073407850743076107000000006492
:103D080010D50BF20CF10C0519FCFF000047190D3A
:103D18000A002020202046696E64696E672043658A
:103D28006E610020202854686520766964656F20DC
:103D380067616D6529002D2D2D2D2D2D2D2D2D2DF6
:103D48002D2D2D2D2D2D2D2D2D2D2D2D00274127C0
:103D580020746F2073746172740027422720666F85
:103D68007220646966666963756C74790044696673
:103D7800666963756C74793A2000656173790068C7
:103D8800617264006E6F726D616C00596F75202AE4
:103D980063616E2A20736565206D652E2E2E00598D
:103DA8006F75722074696D65206973206E6F772155
:103DB8000041202043656E61206C65617074206F3E
:103DC8007574210057652061726520626F746820E0
:103DD8006368616D7073210043656E612073616C67
:103DE8007574657320796F752E00574841542121E9
:103DF8003F00554C54494D4154452043454E4120C0
:103E0800464F554E442100486F77206469642079F5
:103E18006F7520726561636820746869733F21005B
:063E2800756C747261006C
:00000001FF
